:080000000C946A000C9400004E
:100008000C9400000C9400000C9400000C94000068
:100018000C9400000C9400000C9400000C94000058
:100028000C9400000C9400000C9400000C94000048
:100038000C9400000C9400000C9400000C94000038
:100048000C9400000C9400000C94000000000000C8
:100058000000000053746F70005269676874004CA8
:1000680065667400466F7277617264004261636B03
:100078007761726400536F66742052696768740010
:10008800536F6674204C65667400536F6674204223
:1000980061636B20526967687400536F667420420D
:1000A80061636B204C656674000001002D4E414E63
:1000B80000494E46000080C00800040054000100BA
:1000C8006002B20002006402BE000000F894EE274D
:1000D800ECBBF1E0F5BFE5BF8DE0A2E0BB27ED93F7
:1000E8008A95E9F780E098E0A0E6ED930197E9F7B3
:1000F800E0ECF0E085919591009761F0A591B591BC
:1001080005901590BF01F00105900D920197E1F758
:10011800FB01F0CFEFE5EDBFE8E0EEBFC0E6D2E0CF
:100128000C94C5001A931A2FE12FE7B98BE18A9531
:10013800F1F7369A349BFECF349AE4B1F5B1A3C1F6
:10014800939894981BC0939A9498959A18C09398EA
:10015800949A0FC0939A0CC09398949A959A0FC04A
:1001680093989498959A0BC0939A949807C09398EB
:1001780094989598969A08959398949A959896989D
:100188000895E0E0EABBEBBBE7BBE0E8E8BBE0E0F2
:10019800E4BBE5BBE8E7E1BBE0E0E2BBE3BFE2BF0D
:1001A800ECBFEFBDEEBDEDBDECBDE7BDE6BDEBBD03
:1001B800EABDE9BDE8BDE2BDE5BDE4BDE3BDE9BF1B
:1001C800E5BFE4BFEAB9E0E8E8B9E0E0E7B9E3E8A9
:1001D800E6B9E0E0E0BFEDB9E6BFA0E129D1A0E0D3
:1001E800A1DF2F01A1E09EDF3F01EFEFF0E04E1607
:1001F8005F061CF4EFEFFFEF1BC0EFEFF0E0E41534
:10020800F5052CF4EEEEF2E04E165F060CF003C096
:10021800882499240EC0EEEEF2E0E415F5052CF4DE
:10022800EFEFF3E04E165F060CF003C0E1E0F0E0FC
:100238004F01EFEFF0E06E167F061CF4EFEFFFEFD3
:100248001BC0EFEFF0E0E615F7052CF4EEEEF2E058
:100258006E167F060CF003C0AA24BB240EC0EEEE77
:10026800F2E0E615F7052CF4EFEFF3E06E167F06E3
:100278000CF003C0E1E0F0E05F0100240814090479
:1002880021F400240A140B0409F005C0ACE5B0E021
:10029800C0D056DF57C0F9D021F400240A140B044B
:1002A80009F005C0A1E6B0E0B4D054DF4BC0F2D0ED
:1002B80021F400240A140B0409F005C0A7E6B0E0F5
:1002C800A8D04ADF3FC000240814090411F4E7D07D
:1002D80009F005C0ACE6B0E09CD035DF33C000249F
:1002E8000814090411F4E0D009F005C0A4E7B0E04F
:1002F80090D02DDF27C0C9D011F4D1D009F005C0A6
:10030800ADE7B0E086D030DF1DC0C4D011F4C7D04F
:1003180009F005C0A8E8B0E07CD022DF13C0B5D052
:1003280011F4C2D009F005C0A2E9B0E072D024DF10
:1003380009C0B0D011F4B8D009F004C0A2EAB0E006
:1003480068D015DFA4E6B0E0BFD043D048CFFFCFD8
:100358001A931A2F14FF02C0C39A01C0C39815FF3D
:1003680002C0C49A01C0C49816FF02C0C59A01C051
:10037800C59817FF02C0C69A01C0C6988DE08A9535
:10038800F1F7C29A8DE08A95F1F7C2988DE08A95C7
:10039800F1F779C0AA93A881DBDFE881E295E883C9
:1003A800A881D6DF85E88A95F1F7219608951A93F2
:1003B8000A931A2F0A81E12FF0E0EC59FD4FE081F2
:1003C800E00FAE2FE7DFD02EC12E198108812396CA
:1003D8000895A2E06ED0ACE0DDDFA1E06AD0E0E0F5
:1003E800CE2EDE2E08951A931A2F1A3021F0E0919E
:1003F8006802DE1640F0E0E0EA93C394AC2DD7DF44
:100408001A3009F440C0D394C09AA12FC3DFC09812
:100418003AC064D09D01F9012F5F3F4FE4911E2F30
:10042800E03019F0A12FDFDFF6CF5DD024960895D4
:100438001A931A2FBB9ABC9ABD9ABE9ABA9AB89ABE
:10044800B99AC298C098C19810936802E12FE058F1
:10045800E0936602E12FE054E0936702A4E1B0E084
:1004680033D02BD02AD029D0A0E272DF88EC90E0DC
:100478000197F1F7A8E28EDFA4E08CDFA5E88ADF18
:10048800A6E088DFA6DF19910895E1E0F0E0E8151D
:10049800F9050895EFEFFFEFE815F9050895E1E094
:1004A800F0E0EA15FB050895EFEFFFEFEA15FB050D
:1004B800089570DFA3E0B0E007C0A0E349DF88EC4F
:1004C80090E00197F1F70895109639F0A89580ED1E
:1004D80097E00197F1F71197C9F708953A932A938E
:1004E8001A930A9308953B812A81198108810895F6
:00000001FF
